:020000040800F2
:10000000C00F00207D020008DD7C00084967000861
:1000100000000000000000000000000000000000E0
:10002000000000000000000000000000E37C000869
:100030000000000000000000E17C0008E57D0008F1
:100040008F0200088F0200088F0200088F0200084C
:100050008F0200088F0200088F0200089D2B000805
:100060008F0200088F0200088F0200088F0200082C
:100070008F0200088F0200088F020008917E00089E
:100080008F0200088F0200088F02000800000000A5
:100090008F0200088F0200088F0200088F020008FC
:1000A0004D6700088F0200088F0200088F020008C9
:1000B000FD8E00088F0200088F0200088F020008E2
:1000C00000F002F800F0CBF812A030C8083824186D
:1000D0002D18AC4201D100F0C2F80FCCA246AB46BD
:1000E0000CA730CF2D1B083F3F197C427F1E544484
:1000F0002D090426F441641EAC4201D300F0AFF890
:100100000126334200D0FB1A3343984754465D46DC
:10011000DFE70000E0B4000000B50000103A02D3B1
:1001200078C878C1FAD8520701D330C830C101D598
:1001300004680C6070470000704700000023002432
:1001400000250026103A01D378C1FBD8520700D30E
:1001500030C100D50B60704710B56E2902D101F097
:1001600063F810BD702902D101F09FF910BD662916
:1001700002D10AF06FFE10BD652902D10AF06AFEB5
:1001800010BD672902D10AF065FE10BD612902D1B8
:100190000AF068FE10BD03681B0A01D380231943CF
:1001A000692902D101F00AF810BD642902D101F0D9
:1001B00005F810BD752902D101F000F810BD6F29B6
:1001C00002D101F01DF910BD782902D101F05AF9D0
:1001D00010BDE92902D101F0B9F810BDE42902D11E
:1001E00001F0B4F810BDF52902D101F0AFF810BD4F
:1001F000EF2902D101F010F910BDF82902D101F068
:100200004FF910BD0368DB0901D38023194363292B
:1002100002D101F032FE10BD732902D101F035FE8A
:1002200010BDE32902D101F03FFE10BDF32902D138
:1002300001F042FE10BD002010BD1FB501F0EEFE22
:100240000400002000210AF08BFD401C60600020AB
:1002500000210AF06FFDE0601FBD10B510BD01F078
:10026000B5FE1146FFF7E9FF08F0C0FE02F04AFABA
:1002700003B4FFF7F2FF03BC02F0E6FA0748804739
:1002800007480047FEE7FEE7FEE7FEE7FEE7FEE77A
:1002900004480549054A064B704700008D7E00085A
:1002A000C1000008C0090020C00F0020C00B0020C2
:1002B000C00B00204343514330B55C18010C130CB4
:1002C0000D4692B25D4380B251432C190546554309
:1002D0000A0C09044D1962415843010C00044019ED
:1002E000514130BDFEB5044610460D46184373D04B
:1002F000A6468C460020A41A01469D4167D3664657
:10030000002701243D46B61A9D4102D313463A46C2
:100310002124654676462F04360C3E432D0CB61A32
:100320009D4104D3150C1B042B4312041034654665
:1003300076462F06360A3E432D0AB61A9D4104D34F
:10034000150E1B022B4312020834654676462F0712
:1003500036093E432D09B61A9D4104D3150F1B01E2
:100360002B431201241D65467646AF07B6083E436F
:10037000AD08B61A9D4104D3950F9B002B43920004
:10038000A41C65467646EF0776083E436D08B61A0C
:100390009D411AD392185B41641C16E00018764602
:1003A00065464941B71A9D410191009009D36046C5
:1003B000B11A98418E468446009801990025401C48
:1003C0006941DD0752082A435B08641EE6D5724680
:1003D000634603B0F0BDFFE72046284307D0002066
:1003E000C0430146C046C04622462B46F1E70020E6
:1003F0000146F7E70FB41CB50C0007AA009007D020
:100400004142A14202D30019401E01E00020C04336
:10041000074B7B4469460190069800F01EFF0021BF
:10042000002C01D0009A11701CBC08BC04B0184705
:100430006B0E000001E004C0091F0429FBD28B07EA
:1004400001D50280801CC90700D0027070470029C6
:100450000BD0C30702D00270401C491E022904D3EE
:10046000830702D50280801C891EE3E70022EEE7A5
:100470000022DFE7002203098B422CD3030A8B42C0
:1004800011D300239C464EE003460B433CD400228C
:1004900043088B4231D303098B421CD3030A8B429E
:1004A00001D394463FE0C3098B4201D3CB01C01A6C
:1004B000524183098B4201D38B01C01A5241430937
:1004C0008B4201D34B01C01A524103098B4201D325
:1004D0000B01C01A5241C3088B4201D3CB00C01A92
:1004E000524183088B4201D38B00C01A524143080A
:1004F0008B4201D34B00C01A5241411A00D201462F
:100500005241104670475DE0CA0F00D049420310C7
:1005100000D3404253409C46002203098B422DD316
:10052000030A8B4212D38901FC2212BA030A8B42BE
:100530000CD3890192118B4208D3890192118B420D
:1005400004D389013AD0921100E08909C3098B4292
:1005500001D3CB01C01A524183098B4201D38B01D5
:10056000C01A524143098B4201D34B01C01A524178
:1005700003098B4201D30B01C01A5241C3088B42BD
:1005800001D3CB00C01A524183088B4201D38B00A8
:10059000C01A5241D9D243088B4201D34B00C01A32
:1005A0005241411A00D201465241104663465B1047
:1005B00001D34042002B00D54942704763465B108F
:1005C00000D3404201B50549002802DC491C08401F
:1005D00000E00846C046C04602BD00BFFFFFFF7FE7
:1005E00070477047704700000246C80FC00781433C
:1005F0004B0030B54B405B009B0D20D01923DB0630
:10060000C91801231B05994220DB0324A4070425F4
:100610001346AB400BD3002B04D1EB0613409B00D9
:10062000E34204D401246407002312195941FF2333
:100630001B0599420BD2C9000143500F09E0CB02C0
:1006400004D501430803024305D0054830BDFF210E
:10065000C905084330BD084607210905884330BD58
:100660000000C07FF0B50C46871A9C410D46861AE3
:100670009D4103D2C01BA141D21963410D0D1F0D35
:10068000C94EEC1BAE435CD07F057F0D0026002FCA
:1006900051D02D05AC46A943DD020123ED0A1B050F
:1006A0001D4320231B1B24D41746E74038187141F3
:1006B0002F46E740CC199D402818314661410C0D6A
:1006C00027D161449A4013D50023401C5941520060
:1006D0000ED14008400001224B005205D34207D3FF
:1006E00005204007C14201D5B04900E0B04930467D
:1006F000F0BD6B00002A00D001229A181F23203C75
:100700001B1B01D5002302E0E540281871410C0DA8
:10071000D7D0012424050919C407CD07400849088A
:10072000E40F28436144002CD5D00024401C6141D3
:100730009A40D0D1CDE76A05520DD9D1C90FC9076A
:10074000D5E79C4D4E00002801D0012400E0002494
:1007500034195F00002A01D0012600E00026BE19EE
:10076000954FAC420CD8AE420AD8B44206D001250F
:100770006D05EC42BCD010461946F0BD9942FCD044
:1007800000203946F0BDF0B51FB40C460F46811A63
:100790009F412546861A9D4106D20125ED076F40EF
:1007A000401ABC4152187B41210D1E0D8D1BAC46D9
:1007B0007D4D8D437ED075056D0D7CD00D05AE460B
:1007C000AC431B031B0B794D52429D4120236646CF
:1007D0009B1B14D31746F74038180026009074412D
:1007E00060462F460741E41900989D40281866414D
:1007F00016D4714671189A4025D5012320E093182C
:100800002A466A415200002B00D0521C1E23203E73
:100810009B1B002B61DD3541EE1728186641E8D59A
:10082000001876415B1C9A4000D3401C4B05F3181E
:100830001524E34010D3002B52D071467118D30F0A
:10084000C01802D3491C05B0F0BD0123DB079A4252
:10085000F9D140084000F6E701225205B21801D153
:10086000002853D00123CC0ADB029943891E002AB9
:1008700008D1020C03D0020C0004103902E0024639
:10088000002020390023550B05D112020823550BF7
:1008900001D152010D23550C01D112011B1DD50CA4
:1008A00001D192009B1C150D01D152005B1C20252B
:1008B000EE1A01E02CE022E00546F5401543984091
:1008C000CA1AE10769181305C918002ABBDA032000
:1008D00040070818C10FC9070FE071466118B2E759
:1008E000F10740080843711071444A000CD00123FD
:1008F0005B059A42A7D2C90FC9070020A3E74905A3
:10090000490D26D1002001E00028F4D100219AE70A
:10091000284D6600002801D0012100E00021711857
:100920005F00002A01D0012600E00026BE19224FF8
:10093000A94210D8AE420ED8B14208D001256D05AB
:10094000E94206D01946A802414010467BE79C4286
:1009500001D0214677E70020394674E710B50C46F0
:100960005C4005D50124E4076340FFF70CFF10BD90
:10097000FFF778FE10BD30B40C465C4004D501246E
:10098000E407634030BC6DE630BCFCE670B5012482
:10099000E40761400D465D4002D4FFF763FE70BD81
:1009A0006340FFF7F0FE70BDFF0700000000F0FF9E
:1009B0000000F07F0000E0FF0000F87FF0B5F94D87
:1009C0000C091E092C402E402F468BB0A7437DD02A
:1009D000B543FCD0002E7AD0002CFCD00D465D40F3
:1009E000ED0F2543AC1BFF25AD0464190894C50227
:1009F000440DC9022143500DDC0204430120C0070D
:100A000001430443D2020191200C110C00958C4645
:100A1000010423468B430A9161460904E24D8A434F
:100A20000991010A7D4449198039097805464D43E9
:100A300001266D18F605751B6943C90C640B891CEA
:100A40004C436418B5012C1B250C2E04B4434C43B5
:100A50004D43210C691889090591009DE90701D0D2
:100A60000121C90704912C4601996708CD072F433E
:100A70004C08059DE10B4D432D0C294666467543F8
:100A800002950D4645432E46029D7D1BB4410095BF
:100A90000D465D4301942C0C2F040D465543AE4684
:100AA0002D0C3D43029503947546049C2D04641B54
:100AB000049406D2029C039D641C00267541039594
:100AC000029401AC70CC009F7D1B01E03EE162E12D
:100AD000B44109040095079101940599A408614364
:100AE000090C0C464443650BE7040C466646744308
:100AF000A646640B3C43039502947446049DE404AB
:100B00002C1B049406D2029C039D641C0026754194
:100B10000395029401AC70CC009F7D1BB4410194FD
:100B20000C465C430095650FE7000C465443A6460F
:100B3000640F3C43039502947446049DE4002C1B0F
:100B4000049406D2029C039D641C00267541039503
:100B5000029401AC70CC009F7D1BB441AE09AF067E
:100B6000049DC900AD092F43049DA406AD0604955C
:100B7000079D344369180791059DE10B4D432D0CEA
:100B800029466646754302950D4645432E46029D0D
:100B90007D1BB44100950D465D4301942C0C2F0440
:100BA0000D465543AE462D0C3D43029503947546C4
:100BB000049C2D04641B049406D2029C039D641CB7
:100BC000002675410395029401AC70CC009F7D1BFB
:100BD000B44101948C050694079C890A611800951C
:100BE0000791019C0599A4086143090C0D464543F2
:100BF000680BEF040D46644665436C0B3C43049F51
:100C0000ED047D1BAC4602D20025641C6841009EA9
:100C1000019D371B85410846584301950C46460FF8
:100C2000C5005443600F28436546E4002C1B02D2E4
:100C30000025401C6E41019D3F1AB5412846BD0963
:100C4000800628438446A009BF064E020699A406E2
:100C500076180743079D002068410A9907901943B9
:100C60000020099B00906046FF1913434041E20FAA
:100C700064003A43A4460446D71A8C41A04203D9E3
:100C80000120009020463A46C70F94184041624622
:100C9000D20F2243644664000494009CBE46640064
:100CA000D71AA446044602978C417746002F01D1FB
:100CB000A04204D96046401C8446029A2046C40FD4
:100CC000A64694184041049A0546D20F2243644632
:100CD0006400D31A8D417146002901D1A84202D97E
:100CE00028461A46641C10430122002800D01643EF
:100CF00061020020079B891904465C410223002CF5
:100D000002DB491813466441089DCE0A2D145D1973
:100D10004B056705E10A2C050D1908993E43C907E3
:100D20006940002B08D0934006D30022761C514125
:100D3000002B01D1760876001C4A002D43DB1542BA
:100D400041D0AA433FD030460BB0F0BD06180D4647
:100D50004D41174C7642AC411AD395181C465C4164
:100D6000134A6D42A24113D3012252054C00D442D2
:100D70000AD15C00D4420BD04B4002D59202114301
:100D8000E2E749004908DFE75940C90FC90718E001
:100D900000200849D8E7054801420DD10342F7D0A9
:100DA000F2E700000000FF074CA400000000F07F05
:100DB0000000E0FF0000F87F114859400143C012D5
:100DC00041400020C0E70123089A9B069A4205DCB7
:100DD000032252078918C90FC907B5E70522520730
:100DE0008918074A1143D2125140ADE770B5154634
:100DF0001C4602460B4628462146FFF7DFFD70BD24
:100E0000FFFFFF7F1F22030C02D10F22000402D03C
:100E1000030E03D004E00020014670470002083AA8
:100E2000030F01D10001121F830F01D18000921E18
:100E3000002801DB4000521E120551184205C01265
:100E4000411810467047C10FC90700D04042012227
:100E500092071143D6E701218907D3E7F0B58B4C00
:100E60000F09254689B0BD437BD01D092646AE43F8
:100E7000FAD00E465E402740F60F3E43254071D023
:100E800024012142FBD0FF24AD19A4042D1B03959E
:100E900001252D05DB02DB0AC9022B43C90A2943C0
:100EA0001E010901040F130F050121431701880BCF
:100EB000820391432D098C46A90B1E438A03954357
:100EC000B30B9A0396433F09BA0B9403A7430296C8
:100ED0002E467E430497B6464E19D7190C46019606
:100EE000544305977E43371B7646BF1B3601B646F3
:100EF000BE0B361900967646BC043719009C01D308
:100F0000641C00946400002F01D001263443029E2B
:100F1000049F754366467E430496760034196E003E
:100F200034190094029C019E1C196643751BAE4641
:100F3000069465464519059C05956C4359437546CD
:100F40000891691A0191049E01465143A41B049122
:100F5000611A009C0791E10605D061090122114345
:100F600002E072E06EE06109089D00272C0A2D0660
:100F70006918049D7C412A0A2D066918019D624169
:100F8000AC0DAD026D185441079A910D920255199E
:100F90006141029A644658435443069B059A5A435A
:100FA000121A131B9A0E9B015B187A41010B000564
:100FB000C3185141220A200644195A419A4200D2CC
:100FC000491C01204002814203D315230226F64327
:100FD00002E014230326F6432020C51AA940174631
:100FE000AF40DA400A4320460399D84009147318E9
:100FF00019055118039A3843D2075140AC4009D023
:101000000122944006D30022401C5141002C01D102
:10101000400840001E4A934212D3012203989206D0
:10102000904207DB0520400709181A480143C01207
:10103000414004E0032040070818C10FC907002001
:1010400009B0F0BD0020F107FAE705180C464C4145
:1010500011486D42A04115D394181A465A410E48C2
:10106000644290410ED301204A004005824209D3D8
:101070005A00824206D35940C90F084AC9070020C6
:101080001143DDE700200649DAE700000000FF0712
:10109000FE070000FFFFFF7F0000E0FF0000F07F81
:1010A0000000F87F0121C9050123411842001B06F9
:1010B000D3185B0E0AD0C1100722D2068918400748
:1010C0005242D14201D5520089187047090208D511
:1010D0000146002A03D0C10FC907002070471046FF
:1010E0007047420202D000200249704707210905DB
:1010F0000143F4E70000F87F70B504468569006895
:10110000C10601D5302600E02026C00707D070BDFB
:1011100062683046A1689047206A401C20626D1EBC
:10112000F6D570BD70B5044685690078C00707D153
:1011300070BD6268A16820209047206A401C206230
:101140006D1EF6D570BD09684A0501D540B27047DD
:10115000C905FCD500B2704709684A0501D5C0B27F
:101160007047C905FCD580B2704770B50C4605467E
:10117000012A05D02878800600D5EA69002302E01C
:10118000012305E05B1C934202D2E05C0028F9D108
:10119000A869E618C01AA861286AC01828622846FB
:1011A000FFF7AAFF04E06A682078A968641C9047EA
:1011B000B442F8D32846FFF7B5FF70BDF7B5002558
:1011C00075291068009914A611D0FFF7BCFF0028FC
:1011D00002DA404211A608E0009909688A0701D5A1
:1011E0000FA602E0490704D50EA6012501E0FFF78E
:1011F000B3FF009F0024243704E000F082FE30316A
:101200003955641C0028F8D12B46324621460098F7
:1012100000F059FAFEBD0000000000002D000000A3
:101220002B0000002000000011680268006A5305CE
:1012300001D5087009E0D30501D5088005E0130643
:1012400002D5C21705C100E0086001207047000008
:1012500001694A1C02610878704700B58FB002919D
:1012600000210591054901937944039111460490A9
:10127000684600F027F90FB000BD0000E5FFFFFF52
:101280000CC908399A4202D2531C0B601070704787
:10129000F7B50446154686B02B487844002703C8A6
:1012A0003E460090019111E007986A467100415A4C
:1012B00002A800F005FE411C07D02178890603D55D
:1012C000E269391891420ED83F18761C20788006C2
:1012D00002D5E069B84206DDAE42E5DB0798710051
:1012E000405A0028E0D1A069C01BA0612046FFF74A
:1012F00003FF154878445A3803C800900020019134
:1013000016E041006A460798415A02A800F0D8FD4D
:101310000590401C0AD0002505E0626802A8A1687B
:10132000405D90476D1C05988542F6D30498401C9B
:10133000B0420490E5DB206AC01920622046FFF726
:10134000F1FE09B0F0BD0000569C0000F7B5D21DBB
:101350000025D20815A6D200F52905CA11D0002A09
:1013600005DA00214042914111A60A4608E00099A1
:1013700009688B0701D50FA602E0490701D50EA623
:1013800001251146009F0024243704E000F05EF997
:1013900030323A55641C02460A43F7D12B46324696
:1013A0002146009800F08FF9FEBD0000000000000B
:1013B0002D0000002B0000002000000070B5044646
:1013C0000021243408E05507D2086D0F30356554EC
:1013D0005D072A43DB08491C15461D43F3D1046809
:1013E000002310A2250708D520252C400C4304D04B
:1013F000C46901230CA2641EC46100F064F970BDCD
:1014000010B5044621461068FFF7A6FE00230246E9
:101410002046FFF7D3FF10BDD21DD108C9000CC96B
:10142000CCE700000000000030000000F8B50F46D7
:101430000188090502D5224C7C4402E0204C7C4402
:101440000E3405460021243508E016071209360F30
:10145000A65D6E541E0732431B09491C16461E43E7
:10146000F3D1224604780023240705D5702F06D037
:10147000002901D00223113200F025F9F8BD012323
:101480001032F9E770B504460D4621461068FFF7A3
:1014900063FE0023024629462046FFF7C7FF70BDC2
:1014A000D21DD308DB000CCBC0E730B40368202486
:1014B0001268234303600823C36130BC0023B5E7EF
:1014C000C09A0000F3B50446002081B02062204697
:1014D000E1688847002872D0252802D06268A16898
:1014E000ABE0594F00267F442046E168884720281A
:1014F000054608DB312D06D27819203800780028FF
:1015000001D00643F0E7B00701D504208643002050
:10151000E0610746A0612A2D0AD0284609F002FCA6
:10152000002827D0B8000019303D0090856119E0EF
:101530000298BA00121902C8916102902046E1682F
:101540008847012F054617D1E06900281FDA2020BF
:1015500086431CE000980A2180694843009940199D
:10156000303888612046E1688847054609F0DAFB93
:101570000028EFD1012F0AD02E2D08D12046E16896
:1015800088470546202006437F1C022FC3DBA06945
:10159000002803DA4042A06101200643F00701D091
:1015A000102086436C2D0BD0682D09D04C2D3CD0DB
:1015B0006A2D38D0742D38D07A2D36D016E040E020
:1015C000E1682F4620468847B842054609D16C2F6E
:1015D00029D001208002E16806432046884705465D
:1015E00004E06C2F1DD0FF2001300643002D28D0D1
:1015F00028464138192803D80120C0020643203567
:10160000204626602946029A1646FEF7A5FD0028C8
:1016100010D001280BD0F61DF008C0000830029051
:1016200055E74020E1E78020D5E70020D3E7361DCD
:1016300002964CE762682846A1689047206A401CE1
:1016400044E7206AFEBD00003A9A00000B4670B5E0
:10165000024689078008084319469D08141AA941C3
:1016600025090807054308092C194841250A0106E0
:101670000D43010A2C194141200C0D0428430D0C87
:1016800000194D41002140194D41C0086907084328
:10169000E908840F8D002543840024184D41241946
:1016A0006D41121BAB4107E00925ED432C11521986
:1016B00063410024401C61411C460A250026551B3D
:1016C000B441F1D270BDFFB504460D4681B024305F
:1016D00000902168880604D51022E06991432160BA
:1016E00000E00120A84201DD471B00E0002704982C
:1016F000A1697A191018081AA0612078C00602D4CE
:101700002046FFF7F9FC002608E003986268A1680C
:10171000805D9047206A401C761C206204988642B7
:10172000F3DB2078C0060AD52046FFF7E5FC06E08B
:101730006268A16830209047206A401C20623846C9
:101740007F1E0028F4DC07E000986268A168405D15
:101750009047206A401C206228466D1E0028F3DC5A
:101760002046FFF7DFFC2078000602D5022005B0F6
:10177000F0BD0120FBE70000FFB50C461E468FB010
:1017800003CA089009914F007D0D00D16D1E002104
:1017900008460020C0460321099A89050840002A0E
:1017A00003DA8200801840080840800D01280A9062
:1017B00002DD0020C0430A90089807430DD0F0488E
:1017C000F049281848430714189800281DD075427E
:1017D000291E1DDD0A9842421BE01898012802D0FC
:1017E0000020302104E00020F24305E02154401C99
:1017F000B042FBDB30460022189B002121540F9998
:101800008B600A60486013B0F0BDBD1B6D1CDFE744
:101810000A9A002900DA69420BA800F047FC0BABDA
:1018200007CB03AB07C30899099800F0ABFC6B46E4
:1018300007C30146D4480918002D00910BDDD24999
:1018400003980A9A49424018002303A90390684666
:1018500000F008FF08E003990A9A0023081803A97A
:101860000390684600F0A8FE6B4607C30004000C16
:1018700003D00020C043410800E01046189A002A17
:1018800003D00022009215461EE0751E05D4FFF716
:10189000DDFE303262556D1EF9D5012208430796F0
:1018A00002D000227F1C04E02078302801D10022E1
:1018B0007F1E002A069787D01EE0112D07DAFFF75A
:1018C000C5FE303262556D1C02460A43F5D108430D
:1018D00003D00098002819D00EE00021681E05E012
:1018E000235C625C63542254401E491C8142F7DB36
:1018F000A81B401E07950690079A18990020A0542F
:101900000F98079B069A81600CC07CE71126002087
:10191000189059E7D21DF0B50D460446D10893B092
:10192000C90003C90C900D9109F0D0F902460D9839
:10193000C00F01D02D2007E02068810701D52B20A2
:1019400002E04007C00F4001032A0F9001D0072A90
:1019500005DB03462946204600F064FB0EE12078B3
:10196000800601D5E76900E006272846652D04D0EA
:10197000662814D0672D69D12DE00020112F00902A
:1019800001DB112300E07B1C0CAA03A910A8FFF7C0
:10199000F3FE1199002610987D1C0E9142E0012063
:1019A0003B460CAAC0070B900120009003A910A889
:1019B000FFF7E2FE119D12981099002600280E955F
:1019C00001D1781C0D18781B02D446427D1C761E6E
:1019D000E81B00903AE0012F00DA01270020112FC8
:1019E000009001DD112300E03B460CAA03A910A8DA
:1019F000FFF7C2FE11993D46109800260E912178FE
:101A000009070BD40E99A94200DA0D4603A9012D4E
:101A100004DD4A19203AD27F302A06D0B84201DAD2
:101A2000011D04DA012100910FE06D1EEFE700288F
:101A300002DC86192D1A03E0411CA94200DD0D4687
:101A4000801B401C00900120C0070B9020780007ED
:101A500005D40098A84202DB0020C04300906946EC
:101A60000020C8720B98012102AF0337C9078842D2
:101A700025D0022010902B2011900B9800280BDA13
:101A800040420B902D20119006E00B9800F039FA9F
:101A900030317F1E0B9039701099481E002910902C
:101AA000F3DC0B980028F0D111987F1E3870208845
:101AB000000501D5452000E065207F1E387001A893
:101AC000C01BC01D0B900F98002800D001204119A9
:101AD0000098C01709180B980818A169081A401E29
:101AE000A0612078C00602D42046FFF705FB0F98BE
:101AF000002805D06268A1689047206A401C2062D7
:101B00002078C00625D52046FFF7F6FA21E0002E02
:101B100007DB0E98B04204DD03A86268805DA1680F
:101B200002E06268A16830209047206A761C401C61
:101B300020620098401E002800900AD100F06EFA42
:101B4000C06862680168405CA1689047206A401CD8
:101B5000206228466D1E0028D9DC07E062683878CC
:101B6000A1687F1C9047206A401C20620B99481E88
:101B700000290B90F2DC2046FFF7D4FA032042E65E
:101B800001FCFFFF104D0000E1DFFFFFD21DF0B5AB
:101B900004460D46D0088DB0C0004668076831463F
:101BA000384609F093F80246F00F01D02D2307E0E4
:101BB0002068810701D52B2302E04007C00F4301B5
:101BC0006846002B037001D0012000E00020032AAA
:101BD0000A9001D0072A04DB2946204600F022FAA9
:101BE0002DE12078800601D40D2500E0E569700024
:101BF000400D0D2D01904BDA300D00210B90084661
:101C00000020C046032189050840002E05DA820025
:101C10008018C20F1018401008408015012801DDFF
:101C20000020C043A9000023182906D39C460A4679
:101C30000123183A1B07D34003E001221205CA40D2
:101C400094460C31202902D33A46203900E032462E
:101C50008A40002802DD002A06D119E0002817D1A9
:101C60000121C9078A4213D3194663467F185E4192
:101C7000002806D10120C007824202D108468743CE
:101C80009E430B98310D814202D00198401C019077
:101C90002088000502D57149794402E06F497944F2
:101CA00019396B460A9830221A540A980A7C401C4B
:101CB0001A54401C0A900198002801DC302000E0F2
:101CC00031201872019A0120002A02D0644BD218E8
:101CD00004E072003A4302D0614A521C0192002D86
:101CE00002DC2278120703D56A462E2050720220A9
:101CF0000022864694460CE032033601120F6D1E18
:101D00008B5C02AA13546246521C401C9446052A5E
:101D100001DA002DF0DC002202AE08E03B0F3F01AB
:101D2000CB5C521C6D1E3354401C082A01DA002D76
:101D3000F4DC23689A0601D511E0401E704504DDED
:101D40003218203AD27F302AF7D0002807DD321827
:101D5000203AD27F2E2A02D11A0700D4401E002D2D
:101D600003DD3E223254401C6D1E497C31540199E2
:101D7000401C002906DA2D21471C315401984042AD
:101D8000019003E02B21471C315401987D21C900AB
:101D9000884206DBFEF778FB3030F0557F1C01915E
:101DA00001E0642808DB01986421FEF76DFB303008
:101DB000F0557F1C019101E00A2806DB01980A21F9
:101DC000FEF762FB3030F0557F1C01980A21FEF7C8
:101DD0005BFB3031F1550A98A1697F1C7A19101804
:101DE000081AA0612078C00602D42046FFF784F9C3
:101DF000216A6E460A980818206204E0626830780A
:101E0000A168761C90470A98401E0A90401CF5D1A4
:101E10002078C00602D52046FFF76EF902AE09E031
:101E20003078761C3E280DD06268A1689047206A01
:101E3000401C20627F1EF3D22046FFF773F90DB0DD
:101E40000320F0BD206A4019206203E06268A168A7
:101E5000302090476D1EEDD3F8E70000AC920000F3
:101E600001FCFFFF10B54369002B02D0C046C046FD
:101E700001E0FFF77AF9012010BD12780146243104
:101E80000A7000224A700122ECE711680022D24356
:101E9000E8E710B54369002B02D0C046C04601E018
:101EA000FFF7F6F9012010BD128801462431828423
:101EB0000022C2840122ECE711680022D243E8E745
:101EC000F8B516460C46054600F0A0F80368FF205A
:101ED0000230C05C012807D0FF2C0FD8185D002805
:101EE0000CD001202C70F8BDFF3332462146083358
:101EF0001868C71828460023B847F8BD0020C0431B
:101F0000F8BD01468008081A02091018020A1018C4
:101F1000020C1018C008820012185200891A01E041
:101F2000401C0A390A29FBD270470000F8B5264C3C
:101F30004E00069DA6420AD8A64201D1002806D12D
:101F40005E00A64203D8A6420AD1002A08D00D247A
:101F50002404254233D02946002000F0DBFBF8BDE5
:101F60000C461C4311D4994207D0C81A02D3EFF390
:101F70000080F8BDEFF30080F8BD801A02D3EFF3C4
:101F80000080F8BDEFF30080F8BD09242407E500C8
:101F90008B4207D0581A02D3EFF3008006E0EFF32C
:101FA000008007E0101A03D3EFF30080A04303E0A2
:101FB000EFF30080A043284380F30088F8BD00952C
:101FC00000F0C0FBF8BD00000000E0FF754600F027
:101FD000C3FBAE46050069465346C008C0008546AF
:101FE00018B020B5FEF754F960BCB64600260027AD
:101FF000C0C5C0C5C0C5C0C5C0C5C0C5C0C5C0C5B9
:10200000403D490849008D467047000010B500F07A
:1020100005F8001D10BD00BF498D00000048704745
:1020200030000020F8B51F46044601230068DB029B
:10203000032601461840072A05DB002801D017A512
:1020400006E017A504E0002801D016A500E016A5BB
:10205000102081432160A069C01E002FA06101D023
:10206000401EA0612046FFF747F8002F09D03846F0
:102070006268A1689047206A401C2062C01C2062F0
:1020800006E0206AFAE762682878A1686D1C90472C
:10209000761EF8D22046FFF745F8F8BD4E414E00B7
:1020A0006E616E00494E4600696E6600F7B51646D1
:1020B0008AB0334878446C4603467C33C06F5A6814
:1020C0009B680DC42E487844763003AC0DC80DC40F
:1020D0003720C001081837211B30FEF7D5F9054617
:1020E0000C46803D1B3C02D56442012000E00020EC
:1020F0000027099010E0E0070CD00C20204978431D
:10210000794432464C3941186846012300F054FAAC
:102110006B4607C364107F1C002CECD1184F7F4422
:102120002E3F16E0E80712D02001C0190EC8069114
:10213000089307920068F04201D19819089032463E
:10214000012306A903A800F037FA03AB07C36D10FB
:10215000641C002DE6D10998002806D03246694655
:10216000012303A800F07EFA05E001233246694608
:1021700003A800F021FA0A9B07C30DB0F0BD0000D0
:10218000A48E0000034640000A4610B5400D0BD057
:102190000121C9070F24A40200191C03640821436C
:1021A000540D2143D20207E000210120F2E7D40FB1
:1021B000490021435200401E0029F8DADB0FDB07FB
:1021C000184310BDFFB50D46144685B048685168E8
:1021D00008F064FD00910190A868A16808F05EFD18
:1021E00002910390A868616808F058FD029A1218DD
:1021F0008242029201D2012000E00020019A0B18D5
:10220000D2180028019202D08A4202D903E08A4201
:1022100001D2012000E000200099081800906868B1
:10222000A16808F03BFD029A12188242029201D284
:10223000012000E00020019A0B18D218002801921A
:1022400002D08A4202D903E08A4201D2012000E092
:102250000020009908180090286821684000490073
:10226000400849084018FA49471814E0019940000D
:10227000C90F08430090019802994000C90F084314
:102280000190029803994000C90F084302900398F7
:1022900040007F1E039000980028E7DA0898002885
:1022A00001D0EC4E00E00026B74201DA012000E048
:1022B0000020002804902AD0F71BF806C00E15D085
:1022C000029B2021091A039A8B401A430392029A17
:1022D000019BC2408B401A430292019A009BC2406C
:1022E0008B4000991A430192C14000917B110DD09F
:1022F0006F460320C11A03D500218200B95003E0C4
:102300008A008100BA587A50401EF3D537460398A8
:102310000299002800D0012001430898029100286A
:1023200008460CD0002800D001200199019A4905E7
:1023300008430121D20AC902D202019200E0012120
:102340000E9B0122D207012B02D0002B03D013E0F9
:10235000002807D120E0904204D890420CD1019B84
:102360000B4209D0019B5918019105D10099491CD4
:10237000009101D17F1C009200280DD01021084649
:102380000020C0460498002806D00F98002803D0EB
:10239000082108460020C04628682168019B009A51
:1023A0004840C10F0598C90739430EC009B0F0BDB8
:1023B000FFB587B0099A08980899536892684068F1
:1023C000896896460022039317469446089A126835
:1023D0005300099A5B081268520052089A1A9E4BE1
:1023E000D4180A9A002A01D0352200E04022069231
:1023F0000022012315460492DB07059324E0002DFB
:1024000005D175460346039E4D1BB34109D375465E
:102410006646039B491B049D9841059B7519AC4674
:102420005F4163463B4308D0059B049EDD07760869
:102430002E435B080496059301E0521E641EC50FEF
:10244000ED0749184041521C069B9A42D7DB002DEC
:1024500004D17546039A6B1A824101D203200CE025
:10246000039A0B466B404240134303D0014303D011
:10247000012002E0022000E00020614601910021DD
:10248000009702910A99002905D061464002014354
:10249000704B019102E08007002302909C4201DA18
:1024A000012000E0002007003AD01A1BD006C00E21
:1024B00015D0029D2021019C091AC5408C4025435E
:1024C000029C8C4000D001242543019C0295009D74
:1024D000C4408D4000992C430194C1400091541197
:1024E0001DD06D460221002202290CD10320001BC1
:1024F00007E0002804DB8600AE59002E00D0012240
:10250000401C0328F5DB081B02D588002A5004E094
:102510008000285810438A00A850491EE3D51C4665
:102520000A98002802980CD0002800D001200199B8
:10253000019A490508430121D20AC902D202019237
:1025400000E00121109B0122D207012B02D0002BB9
:1025500003D013E0002807D11FE0904204D8904236
:102560000CD1019B0B4209D0019B5918019105D157
:102570000099491C009101D1641C009200280CD0E4
:10258000102108460020C046002F06D011980028D0
:1025900003D0082108460020C04608980999019AEE
:1025A000009B006809684840C10F0798C90721438C
:1025B00082600AC00BB0F0BD00B585B001930092F7
:1025C0000A460146002302A8FFF7FCFD02A807C83F
:1025D00005B000BDFFB50A461F4685B007990193B7
:1025E00001230091014602A8FFF7ECFD0299039830
:1025F000049ECA0F4900D20700920F224908920296
:102600008C1A0021002800DB0C46450013486D0899
:10261000844214D3079A002A04DA441E0026104D7F
:10262000F64302E004460D460E46102108460020FF
:10263000C046002F03D0042108460020C0462005D4
:10264000E90A0843009908436905F20A1143ADE617
:1026500002C0FFFF013C0000FF3F0000FF07000039
:10266000FFFFFF7F00B585B0019300920A46014647
:10267000002302A8FFF79CFE02A807C8A8E7FFB541
:102680000A461F4685B00799019301230091014630
:1026900002A8FFF78DFE02990398049ECA0F490015
:1026A000D20700920F22490892028C1A00210028BA
:1026B00000DB0C46450011486D08844214D3079A8C
:1026C000002A04DA441E00260D4DF64302E00446BB
:1026D0000D460E46102108460020C046002F03D0AC
:1026E000042108460020C0462005E90A0843009955
:1026F00008436905F20A114358E60000FF0700008D
:10270000FFFFFF7F10B50446C046C0462046FDF7D8
:10271000AFFD10BDC80212D54803400F002804D0F9
:10272000C803C043012188407047EFF300800001D7
:10273000000903210907084380F30088704700203F
:102740007047000010B500200249029A00F04CF8D2
:1027500010BD00000000F87F004870471000002006
:10276000024670B50A4392072AD11E4DEE0104C8F5
:1027700008C9541B9443344017D0D0B2D9B2401A80
:102780002106014310D190B299B2401A21040143AD
:102790000AD110021902000A090A401A2102014353
:1027A00002D1100E190E401A70BD9A42DFD010BA35
:1027B00019BA884201D9012070BD0020C04370BD04
:1027C00002780B78401C491C002A09D09A4207D194
:1027D00002780B78401C491C002A01D09A42EFD0A5
:1027E000D01A70BD0101010110B50C461107090F87
:1027F000092904D00A290AD008290CD104E011467D
:102800000820FFF787FF06E0510606D501E05106D4
:1028100001D50120C007214610BDD10607D5010111
:102820000909CC084907000E0006044309E0410FDE
:1028300020024907000A0143200E00061D22D14153
:1028400001430846E7E7000001491820ABBEFEE758
:102850002600020070470000F0B58BB0BC4800783D
:1028600053282AD1FFE7BA484078542825D1FFE7FA
:10287000B74880784F2820D1FFE7B548C078502866
:102880001BD1FFE7B34901200870C348079006F049
:1028900019FC079806F05AFD00200A90FFE70A98F5
:1028A000372809DCFFE70A9AA94900208854FFE786
:1028B0000A98401C0A90F2E747E1A5484078312881
:1028C00000D0C4E0A24A0592D1783039642318467A
:1028D00048431579303D0A210C466C430419507960
:1028E00000193038A14C2070947A303C184660436F
:1028F000D57A303D0C466C430419107B00193038F2
:102900009B4C2070157C303D7D20C00004466C43FC
:10291000567C303E1D4675436419967C303E0D460C
:1029200075436519D47C6419303C924D2C80D57D5B
:10293000303D04466C43167E303E1D467543641997
:10294000567E303E0D4675436519947E6419303CC1
:10295000894D2C80947F303C6043D47F303C63436E
:10296000C0182023D35C303B594341182120105C10
:102970004018303881490880814F00200690387017
:10298000804908702620105C80017F4BC0182724E6
:10299000145D64017D4EA41920432824145D240194
:1029A0007B4D641920432924125DD200794C121901
:1029B0001043059A02902A20125C02989200C03AB5
:1029C0001043059A03902B20125C03985200603A42
:1029D0001043059A04902C20125C0498303A10435E
:1029E000059A38703120105C8001C0183223D35C06
:1029F0005B019B1918433323D35C1B015B191843FC
:102A00003423D35CDB001B1918433523D35C9B00B4
:102A1000C03B18433623D35C5B00603B184337232D
:102A2000D25C303A1043087005F05CF906980990C2
:102A3000FFE70998372809DCFFE7099A4449002095
:102A40008854FFE70998401C0990F2E77CE0404871
:102A500000784B2877D1FFE73E49002008703C49B9
:102A600001910B7A303B642422465A434E7A303E21
:102A70000A231D46754355198A7A5219303A364D44
:102A80002A700D7D303D22466A434E7D303E1D4604
:102A9000754355198A7D5219303A304D2A702222D9
:102AA0008E5C303E7D22D2001546754323268F5D15
:102AB000303F26467E43AD1924268F5D303F1E46AB
:102AC0007E43AE1925254D5DAD19303D244E358030
:102AD0002C254E5D303E154675432D268F5D303FCB
:102AE00026467E43AD192E268F5D303F1E467E431F
:102AF000AE192F254D5DAD19303D1A4E3580342568
:102B00004D5D303D6A4335254D5D303D6C431219B6
:102B100036240C5D303C6343D2183723C95C8918D6
:102B20003039114A11800890FFE70898372809DCEE
:102B3000FFE7089A064900208854FFE70898401CE0
:102B40000890F2E7FFE7FFE7FFE700200BB0F0BDDA
:102B50002603002000000020180300201903002095
:102B60001A0300201E03002022030020CC030020B3
:102B7000CD030020CE030020D0030020D20300208C
:102B8000700000207100002000F4FFFF00FAFFFF3A
:102B900000FDFFFF80FEFFFF0C05002080B5012037
:102BA000400300F0DDFA80BD81B0EFF3108072B613
:102BB0000090FFE7FEE7000081B00020009075481C
:102BC0000068C00500280BD5FFE7E84948690222E4
:102BD0001043486100980121090208430090FFE773
:102BE0006C480068800500280AD5FFE7DF4A506975
:102BF0000121084350610098490208430090FFE713
:102C000064480068400500280BD5FFE7D7494869AC
:102C1000082210434861009801218902084300906E
:102C2000FFE75C480068000500280BD5FFE7CF49A7
:102C3000486904221043486100980121C9020843F1
:102C40000090FFE753480068800400280BD5FFE799
:102C5000C649486910221043486100980121490380
:102C600008430090FFE74B4800688003002809D51F
:102C7000FFE7BE4A5069202108435061009808438D
:102C80000090FFE743480068C00300280BD5FFE72A
:102C9000B64948694022104348610098012109045F
:102CA00008430090FFE700983A49086001B0704778
:102CB00080B584B0029000F0F3FB0190FFE7354847
:102CC0000068C007002817D0FFE70298401C0028C2
:102CD00011D0FFE70298002808D0FFE700F0E0FBE2
:102CE0000199401A0299884204D9FFE703A90320F9
:102CF00008704BE0FFE7E2E72648006880070028FD
:102D000004D5FFE7234902200860FFE72148006857
:102D100001210902084088422ED0FFE71D480068C3
:102D2000012149020840884226D0FFE7194800687F
:102D300001218902084088421ED0FFE7154800683B
:102D40000121C9020840884216D0FFE711480068F7
:102D500001214903084088420ED0FFE70D48006872
:102D6000012149040840884206D0FFE7094800686D
:102D7000C003002806D5FFE7FFF71EFF03A90120C7
:102D8000087003E003A900200870FFE703A800789B
:102D900004B080BD1820024083B001906946002035
:102DA000087001982521405C02280DD0FFE70199A9
:102DB0000420C863FFE70199242200208854FFE71C
:102DC00002A90120087020E00198016808680E221D
:102DD00090430860019802681168012081431160E6
:102DE000019A536C1C210B4001469940126C5160B2
:102DF000019925228854FFE7019924220020885454
:102E0000FFE7009802A90870FFE702A8007803B066
:102E1000704780B582B00190694600200870019823
:102E20002521405C022807D0FFE701990420C863F0
:102E300069460120087026E00198016808680E22A2
:102E40009043086001980268116801208143116075
:102E5000019A536C1C210B4001469940126C516041
:102E6000019925228854FFE70199242200208854E3
:102E7000FFE70198806B002804D0FFE70198816B81
:102E80008847FFE7FFE76846007802B080BD81B061
:102E9000009000982521405C01B0704780B584B057
:102EA000039000F0FDFA0290039801900198401CF5
:102EB000002806D0FFE709480178019840180190E2
:102EC000FFE7FFE700F0ECFA0299401A0199884207
:102ED00001D2FFE7F6E704B080BDC046080000203D
:102EE0004D49086802221043086008680122104317
:102EF000086000207047C04680B586B004900391FA
:102F0000029201A901200870FFE71848007C0128FF
:102F100004D1FFE705A90220087023E0134901202E
:102F20000874FFE7FFE71248FFF7C2FE014601A859
:102F30000170007800280CD1FFE70C49002048619F
:102F40000298039908600A48FFF7B2FE01A90870C9
:102F5000FFE7FFE7054900200874FFE7019805A98E
:102F60000870FFE705A8007806B080BDF4040020D3
:102F700050C3000088B028480068C00700281ED051
:102F8000FFE7EFF31080039003980090EFF31080B9
:102F900072B60590214922480860224808600098CE
:102FA0000790079880F310881B480068C007002826
:102FB00004D0FFE701A90120087028E0FFE71648C8
:102FC0000068800700281ED5FFE7EFF3108002900D
:102FD00002980090EFF3108072B6049012491348E3
:102FE00008601348086000980690069880F31088DF
:102FF000094800688007002804D5FFE701A90120DF
:10300000087004E0FFE701A900200870FFE701A8AD
:10301000007808B07047C046042002400C200240EF
:10302000EFCDAB890504030210200240BFAE9D8C9A
:103030001615141380B588B0014607A801800088D2
:1030400001214903884261D1FFE731480078012816
:1030500049D1FFE7072000F0F1FF2D490020039040
:1030600008702F4801882F4801802F4909882F4A6E
:10307000019211802E490A882E4902910A802E4A17
:1030800012782E4B04931A702D4A12782D4B05930B
:103090001A7000880988FDF7EDF902990246019837
:1030A000294B1A7000880988FDF7E4F90146029857
:1030B000264A11700088FA21FDF7DCF9039B0146CE
:1030C0000498234A1170234909780278224806900F
:1030D00004F0A6FB059A0698204909781278012386
:1030E00004F09EFB11E00A490120087009480A49D2
:1030F0000022D3430E2203F071FA0848009005F035
:10310000E1FF009806F022F9FFE7FFE708B080BD75
:1031100000000020680400203AB000080C050020E0
:10312000D203002022030020D00300201E03002031
:10313000CE0300201A030020CC0300201803002037
:10314000CD030020190300202503002021030020C7
:103150001D03002070000020D40300207100002017
:1031600080B582B001A90880074800680988084234
:1031700008D0FFE701A80188034A11600088FFF723
:1031800059FFFFE702B080BD140401408CB00B90E2
:103190000A910020099008900790FFE70A980068BC
:1031A0000999C840002800D162E10A980068099A8C
:1031B00001219140084008900898002800D153E16F
:1031C0000A98406803210840012807D0FFE70A98C1
:1031D00040680321084002282CD1FFE70B98806843
:1031E0000790099840000321814007988843079081
:1031F0000A98C168099840008140079808430790E1
:1032000007980B9988600B984068079009980121EE
:1032100081400798884307900A9840681021084029
:1032200001090998814007980843079007980B996E
:103230004860FFE70A98406803210840032816D039
:10324000FFE70B98C0680790099840000321814070
:103250000798884307900A98816809984000814040
:1032600007980843079007980B99C860FFE70A98EA
:10327000406803210840022820D1FFE70B980999F4
:10328000C90889004018006A079009984007C00ED5
:103290000F2181400798884307900A98016909988F
:1032A0004007C00E814007980843079007980B9984
:1032B000099AD208920089180862FFE70B98006803
:1032C000079009984100032002468A4007999143DC
:1032D00007910A9949680140099840008140079880
:1032E0000843079007980B9908600A98807980072F
:1032F000002800D1B7E05F49086801221043086048
:103300000998032188435C49405807900998800731
:10331000000F0F2181400798884307900B980521E3
:103320000907884203D1FFE70020069038E00B9898
:103330005249884203D1FFE7012005902DE00B9808
:103340004F49884203D1FFE70220049022E00B9806
:103350004C49884203D1FFE70320039017E00B9804
:103360004949884203D1FFE7042002900CE00B9901
:10337000464A0520062300939142019001D000980F
:10338000019001980290FFE702980390FFE70398ED
:103390000490FFE704980590FFE705980690FFE783
:1033A000069909988007000F814007980843079005
:1033B00007980999032291432F4A8850344800689E
:1033C000079008990798884307900A988079C00663
:1033D000002805D5FFE70899079808430790FFE7FD
:1033E00007982B4908602B480068079008990798B0
:1033F000884307900A9880798006002805D5FFE762
:103400000899079808430790FFE707982149086043
:1034100021480068079008990798884307900A9800
:1034200080798007002805D5FFE7089907980843A9
:103430000790FFE707981849086018480068079048
:1034400008990798884307900A988079C007002850
:1034500005D0FFE70899079808430790FFE707980A
:103460000E490860FFE7FFE70998401C099095E6C0
:103470000CB07047341002400800014000040050B6
:1034800000080050000C005000100050001C0050BC
:10349000080401400C040140040401400004014000
:1034A000014800687047C046B809002010B583B0D5
:1034B0000190009101984121405C202839D1FFE71B
:1034C000FFE701984021405C012804D1FFE702A9F1
:1034D0000220087031E00199402201208854FFE762
:1034E000FFE7019941222420885401980168086867
:1034F0000123984308600198016808681C03A043F1
:103500000860009C019801680868204308600198E1
:103510000168086818430860019920208854FFE773
:103520000199402200208854FFE702A9002008707A
:1035300003E002A902200870FFE702A8007803B0A8
:1035400010BD84B00290019102984121405C202876
:103550003FD1FFE7FFE702984021405C012804D1FA
:10356000FFE703A90220087037E0029940220120FA
:103570008854FFE7FFE702994122242088540298EB
:103580000168086801239843086002980068006891
:10359000009000980F2109028843009001980102D1
:1035A0000098084300900098029909680860029802
:1035B0000168086818430860029920208854FFE7D2
:1035C0000299402200208854FFE703A900200870D8
:1035D00003E003A902200870FFE703A8007804B005
:1035E000704781B0009001B0704783B0029001A88D
:1035F00001706846028003B0704780B584B00390C4
:103600000398006880690290039800680068019040
:1036100002A84078C007002810D0FFE701A8007872
:10362000C00900280AD0FFE7039A516C012001432A
:103630005164039909680002C861FFE702A8407855
:10364000042108408008002811D0FFE701A8007875
:10365000C00900280BD0FFE70399486C08221043EB
:1036600048640398016801208002C861FFE702A84E
:103670004078022108404008002811D0FFE701A847
:103680000078C00900280BD0FFE70399486C02229C
:10369000104348640398016801204002C861FFE7B5
:1036A0000398406C0090684600780B21084205D0D2
:1036B000FFE70398009903F09BF9FFE704B080BD92
:1036C00080B584B0039003980068806902900398E5
:1036D0000068006801900398406B002806D0FFE75F
:1036E0000398436B0299019A9847FFE704B080BDA5
:1036F00081B0009001B0704780B582B00090009812
:10370000002804D1FFE701A90120087074E00098A7
:103710004121405C002808D1FFE7009940220020A9
:103720008854009800F0D2FBFFE700994122242042
:103730008854009801680868012290430860009945
:1037400048680F231B0698430968086100980168C0
:103750008868D203904388600098C068012808D127
:10376000FFE7009988680122D20310430968886046
:1037700007E0009988682122920210430968886056
:10378000FFE70098C068022806D1FFE700980168AB
:103790000120C0024860FFE7009801684868184AA5
:1037A0001043486000980168C8680122D303984319
:1037B000C860009908694B6918438B691B0218435C
:1037C0000968C8600099C8690B6A184309680860ED
:1037D0000098016808681043086000990020486458
:1037E000009A41232021D154009908630099422274
:1037F000885401A90870FFE701A8007802B080BDD5
:103800000080000281B0009001B0704710B588B010
:103810000A9C069005A80180049203A803800698DC
:103820004121405C202800D0E4E0FFE706984021D9
:10383000405C012804D1FFE707A902200870DDE001
:103840000699402201208854FFE7FFE7FFF728FE92
:1038500002900698029900910122D103192303F0E6
:10386000BAFE002804D0FFE707A901200870C5E0D0
:10387000069941222120885406994222102088541A
:103880000699002048640499069A51620399069AA1
:103890005185069948630698408D000A00280FD08C
:1038A000FFE70699FF200885069805A909882822C0
:1038B000825C544B009301231B0603F039FE0FE09A
:1038C0000698408D06990885069805A9098828223A
:1038D000825C4C4B009301235B0603F029FEFFE75B
:1038E000FFE70698408D00285DD0FFE706980A990B
:1038F000029A03F015FF002804D0FFE707A9012072
:1039000008707BE00699486A007809688862069921
:10391000486A401C48620699488D401E48850699B1
:10392000088D401E08850698408D00283AD0FFE794
:103930000698008D002835D1FFE706980A9B02996A
:1039400000918021002203F046FE002804D0FFE70A
:1039500007A90120087051E00698408D000A002850
:103960000FD0FFE70699FF200885069805A909886A
:103970002822825C0023009301231B0603F0D8FD5C
:103980000FE00698408D06990885069805A90988D4
:103990002822825C0023009301235B0603F0C8FD0C
:1039A000FFE7FFE79DE706980A99029A03F068FE91
:1039B000002804D0FFE707A9012008701EE0069840
:1039C00001682020C86106990A685168A74B194010
:1039D0005160069941228854069942220020885459
:1039E000FFE70699402200208854FFE707A900203E
:1039F000087003E007A902200870FFE707A8007815
:103A000008B010BD00200080B0B58AB00446109800
:103A10000F980E9D089407AC218006A90A8005A97D
:103A20000B8004A9088008984121405C202800D020
:103A300012E10E98002805D0FFE704A800880028AE
:103A400007D1FFE7089A01204102516409A90870D3
:103A500006E1FFE708984021405C012804D1FFE718
:103A600009A902200870FBE008994022012088542F
:103A7000FFE7FFE7FFF714FD039008980399009113
:103A80000122D103192303F0A6FD002804D0FFE78B
:103A900009A901200870E3E00899412222208854F6
:103AA00008994222402088540899002048640E99C1
:103AB000089A51620499089A5185089948630898B0
:103AC00007A9098806AA128805AB1B88109C039DCC
:103AD0000195009403F04EFB00280AD0FFE7FFE7B2
:103AE0000899402200208854FFE709A901200870A6
:103AF000B6E00898408D000A00280FD0FFE708992B
:103B0000FF200885089807A909882822825C564B5F
:103B1000009301231B0603F00BFD0FE00898408D76
:103B200008990885089807A909882822825C4E4BC5
:103B3000009301235B0603F0FBFCFFE7FFE7089817
:103B4000109B039900910421002203F044FD0028FA
:103B500004D0FFE709A90120087081E008980068F7
:103B6000406A0899496A08700899486A401C486286
:103B70000899088D401E08850899488D401E488583
:103B80000898408D00283AD0FFE70898008D00285B
:103B900035D1FFE70898109B0399009180210022FE
:103BA00003F019FD002804D0FFE709A901200870DF
:103BB00056E00898408D000A00280FD0FFE70899CA
:103BC000FF200885089807A909882822825C00231D
:103BD000009301231B0603F0ABFC0FE00898408D17
:103BE00008990885089807A909882822825C00237B
:103BF000009301235B0603F09BFCFFE7FFE7FFE771
:103C00000898408D00289AD1FFE708981099039AE8
:103C100003F036FD002804D0FFE709A90120087051
:103C20001EE0089801682020C86108990A68516858
:103C3000A54B1940516008994122885408994222A5
:103C400000208854FFE70899402200208854FFE7AD
:103C500009A90020087003E009A902200870FFE705
:103C600009A800780AB0B0BD0024008000E800FE7A
:103C7000B0B58AB0044610980F980E9D089407AC12
:103C8000218006A90A8005A90B8004A9088008984C
:103C90004121405C202800D00EE10E98002805D07C
:103CA000FFE704A80088002807D1FFE7089A012051
:103CB0004102516409A9087002E1FFE70898402118
:103CC000405C012804D1FFE709A902200870F7E051
:103CD0000899402201208854FFE7FFE7FFF7E0FB47
:103CE00003900898039900910122D103192303F04E
:103CF00072FC002804D0FFE709A901200870DFE06A
:103D00000899412221208854089942224020885451
:103D10000899002048640E99089A51620499089AFB
:103D2000518508994863089807A9098806AA128846
:103D300005AB1B88109C039D0195009403F076FA57
:103D400000280AD0FFE7FFE70899402200208854A6
:103D5000FFE709A901200870B2E00898408D000A29
:103D600000280FD0FFE70899FF200885089807A9C9
:103D700009882822825C0023009301231B0603F09C
:103D8000D7FB0FE00898408D08990885089807A987
:103D900009882822825C0023009301235B0603F03C
:103DA000C7FBFFE7FFE708981099039A03F0B8FCF8
:103DB000002804D0FFE709A90120087080E00899D5
:103DC000486A0078096888620899486A401C486215
:103DD0000899488D401E48850899088D401E088521
:103DE0000898408D00283AD0FFE70898008D0028F9
:103DF00035D1FFE70898109B03990091802100229C
:103E000003F0E9FB002804D0FFE709A901200870AE
:103E100056E00898408D000A00280FD0FFE7089967
:103E2000FF200885089807A909882822825C0023BA
:103E3000009301231B0603F07BFB0FE00898408DE5
:103E400008990885089807A909882822825C002318
:103E5000009301235B0603F06BFBFFE7FFE7FFE73F
:103E60000898408D00289ED1FFE708981099039A82
:103E700003F006FC002804D0FFE709A90120087020
:103E80001EE0089801682020C86108990A685168F6
:103E90000D4B1940516008994122885408994222DB
:103EA00000208854FFE70899402200208854FFE74B
:103EB00009A90020087003E009A902200870FFE7A3
:103EC00009A800780AB0B0BD00E800FE80B58AB04D
:103ED000099000200890079006900590049009989A
:103EE0000068184988422AD1FFE7FFE716480268B0
:103EF00002210A4302600068084003900398FFE72C
:103F00000320810204911221059100210191069163
:103F10000790062008900D4804A9FFF737F9019A89
:103F20004549086801239B05184308601820029042
:103F3000114600F099F8029800F08BF8FFE70AB0FC
:103F400080BDC046005800402C10024000040050C4
:103F500081B0009001B0704781B0009001B070470F
:103F60002C48027802490868801808607047C046EB
:103F7000B809002080B582B001A9002008700A4A63
:103F8000116840231943116000F010F8002804D094
:103F9000FFE701A90120087002E000F03FF8FFE709
:103FA00001A8007802B080BD0020024080B584B036
:103FB0000290174800680190164801787D20C000E3
:103FC000FCF758FA01460198FCF754FA01F089F819
:103FD000002804D0FFE703A90120087014E002982C
:103FE000032809D8FFE702990022D04300F03CF8EB
:103FF00002980949086003E003A90120087003E062
:1040000003A900200870FFE703A8007804B080BD72
:1040100004000020080000200C000020054908686A
:10402000012210430860EC49086812071043086039
:104030007047C046341002403810024080B582B04C
:10404000014601A801700021405604F05DFF02B056
:1040500080BD80B582B0014601A8017000214056A4
:1040600004F06CFF02B080BD80B584B0034603A8A5
:1040700003700291019200214056029904F074FFEE
:1040800004B080BD80B586B0049001A900200870FE
:104090000498006820210840202806D0FFE70498F3
:1040A00040780007002800D41FE1049800788006BB
:1040B000002801D5FFE7FFE70498407800070028B3
:1040C00001D5FFE7FFE7C4480068C000002809D415
:1040D000FFE7C14A1168012003071943116001A9D4
:1040E0000870FFE7BD480068C00500281DD4FFE741
:1040F000BA4908680122120210430860FFF7D0F99C
:104100000390FFE7B5480068C00500280CD4FFE71E
:10411000FFF7C6F90399401A652804D3FFE705A9FC
:104120000320087053E1EDE7FFE7AD480068032185
:104130000A0510400290029804994968114088428B
:1041400009D1FFE7029804998968032212051140FA
:10415000884214D0FFE7049840680321090408400E
:1041600088420BD1FFE79E4800688003002804D5F1
:10417000FFE705A90120087029E1FFE7FFE799485B
:10418000006803210904084002900298002851D0D9
:10419000FFE70298049949680322120411408842FB
:1041A00007D0FFE7049800682021084020280FD09E
:1041B000FFE702980499896803221204114088429B
:1041C00038D0FFE7049840780007002832D5FFE791
:1041D000844908680322120490430290086801226F
:1041E000D204104308600868904308600298086091
:1041F00002A84078C00700281BD0FFE7FFF750F95E
:104200000390FFE777480068012149020840400A0F
:1042100000280DD1FFE7FFF743F90399401A7349CE
:10422000884204D3FFE705A903200870CFE0E9E73F
:10423000FFE7FFE7049840780007002821D5FFE753
:10424000FFE7FFE7049880680321090408408842DB
:104250000BD1FFE762490868032213059843049ACB
:1042600092681A4080180860FFE7FFE704988268A8
:104270000320000402405B49086810430860FFE720
:10428000FFE7049800788006002821D5FFE7FFE7C4
:10429000FFE70498406803210904084088420BD1D5
:1042A000FFE74F490868032213059843049A5268B0
:1042B0001A4080180860FFE7FFE70498426803206F
:1042C000000402404749086810430860FFE7FFE721
:1042D00001A80078012807D1FFE73F4908680122BB
:1042E000120790430860FFE7FFE704980078C007D3
:1042F000002809D0FFE73C49086803229043049A4C
:10430000D26810430860FFE704980078800700280F
:1043100009D5FFE7344908680C229043049A1269D2
:1043200010430860FFE704980078400700280AD58A
:10433000FFE72D490868032292029043049A5269CC
:1043400010430860FFE704980078000700280AD5AA
:10435000FFE725490868032212039043049A9269F3
:1043600010430860FFE704984078C00700280AD08F
:10437000FFE71D490868032212049043049AD2699A
:1043800010430860FFE704980078400600280AD52B
:10439000FFE715490868012292069043049A526A81
:1043A00010430860FFE704980078000600280AD54B
:1043B000FFE70D490868032292049043049A126AA9
:1043C00010430860FFE705A900200870FFE705A873
:1043D000007806B080BDC046381002400070004032
:1043E00000100240501002404C100240891300009F
:1043F00080B586B0049003910498002804D1FFE7AB
:1044000005A90120087062E10398B34909680122F7
:104410001140884221D9FFE7AF4908680122904343
:10442000039A10430860FFF73BF80290FFE7AA48A1
:10443000006801210840039988420DD0FFE7FFF78B
:104440002FF80299401AA549884204D3FFE705A92D
:10445000032008703BE1EAE7FFE704980078800753
:10446000002809D5FFE7B1490868F0229043049A73
:10447000926810430860FFE704980078C00700289E
:1044800000D1BCE00498406802280ED1FFE7F34851
:104490000068012149040840400C002804D1FFE7CE
:1044A00005A90120087012E134E00498406803284F
:1044B0000ED1FFE7E9480068012149060840400E97
:1044C000002804D1FFE705A901200870FFE020E0E3
:1044D0000498406801280DD1FFE7E04800680421F6
:1044E00008408008002804D1FFE705A901200870D2
:1044F000EDE00DE0D9480068012149020840400A7A
:10450000002804D1FFE705A901200870DFE0FFE7DC
:10451000FFE7FFE7CF49086803229043049A5268F7
:1045200010430860FEF7BCFF029004984068022820
:1045300016D1FFE7FFE7C74800680C2108400828AC
:104540000DD0FFE7FEF7ACFF0299401A634988429D
:1045500004D3FFE705A903200870B8E0EBE74DE0BE
:1045600004984068032816D1FFE7FFE7B9480068C0
:104570000C2108400C280DD0FFE7FEF791FF0299AF
:10458000401A5649884204D3FFE705A90320087062
:104590009DE0EBE731E004984068012816D1FFE781
:1045A000FFE7AC4800680C21084004280DD0FFE765
:1045B000FEF776FF0299401A4849884204D3FFE784
:1045C00005A90320087082E0EBE715E0FFE7A148AA
:1045D00000680007800F00280DD0FFE7FEF760FF9E
:1045E0000299401A3D49884204D3FFE705A90320F8
:1045F00008706CE0EBE7FFE7FFE7FFE7FFE70398F2
:104600003549096801221140884221D2FFE7324929
:10461000086801229043039A10430860FEF740FFA8
:104620000290FFE72C480068012108400399884266
:104630000DD0FFE7FEF734FF0299401A2749884260
:1046400004D3FFE705A90320087040E0EAE7FFE78D
:1046500004980078400700280AD5FFE77D490868DC
:10466000072212029043049AD26810430860FFE7C1
:1046700004980078000700280BD5FFE77549086803
:104680000722D2029043049A1269D20010430860B4
:10469000FFE700F04FF86F490968C9B20A091049ED
:1046A000895CC840124908600E480068FFF77EFC2C
:1046B000014601A801700078002804D0FFE70198A6
:1046C00005A9087003E005A900200870FFE705A808
:1046D000007806B080BDC04600200240891300006B
:1046E000F0AF00080C000020014800687047C04689
:1046F0000400002080B5FFF7F7FF5649096807223C
:10470000120211400A0A0A49895CC84080BDC046AD
:1047100080B5FFF7E9FF4F4909680722D20211402F
:10472000CA0A0349895CC84080BDC0460C100240DB
:1047300000B0000880B58AB0464800680990099822
:104740000C21084003900C2875D80398810001A023
:104750004058874635480008374800083748000861
:1047600037480008894700083748000837480008DC
:1047700037480008A34700083748000837480008B2
:1047800037480008A947000834480068C0060028D8
:1047900003D5FFE73348049002E031480490FFE777
:1047A00055E03148049052E009980F2189040840EF
:1047B000810C2948405C089009980321890508402C
:1047C000800D401C079023480068C00300280DD5C9
:1047D000FFE70898244A002302931946FBF76AFD75
:1047E000029B079AFBF77EFD069020E01B480068BD
:1047F000C00600280DD5FFE708981A4A0023019348
:104800001946FBF757FD019B079AFBF76BFD0690D6
:104810000CE00898124A002300931946FBF74AFD62
:10482000009B079AFBF75EFD0690FFE7FFE70698FF
:1048300004900CE0FFE70D48006880B2400B059043
:104840000598411C01208840C0030490FFE70498AC
:104850000AB080BD0C10024008B0000800100240F1
:104860000024F40000093D0000127A000410024008
:1048700010B58AB008900898002805D1FFE709A96B
:104880000120087000F015FCFD4801680C22114061
:1048900004910068012109040840039008980078F9
:1048A000C007002800D18DE0049808280AD0FFE74F
:1048B00004980C2819D1FFE70398012109048842C4
:1048C00013D1FFE7EF480068012149040840400C7C
:1048D000002809D0FFE708984068002804D1FFE7C6
:1048E00009A901200870E4E36BE0FFE7089840683D
:1048F00001210904884207D1FFE7E2490868012243
:1049000012041043086021E008984068052109045A
:1049100088420BD1FFE7DB49086801229304184362
:10492000086008681204104308600EE0D549086862
:104930000122130498430860086818400290029806
:104940000868920490430860FFE7FFE7FFE70898D4
:10495000406800281AD0FFE7FEF7A2FD0790FFE7A6
:10496000C8480068012149040840400C00280CD1C7
:10497000FFE7FEF795FD0799401A652804D3FFE786
:1049800009A90320087094E3EAE719E0FEF788FD1F
:104990000790FFE7BB480068012149040840400C2C
:1049A00000280CD0FFE7FEF77BFD0799401A652829
:1049B00004D3FFE709A9032008707AE3EAE7FFE7D9
:1049C000FFE7FFE7089800788007002800D4A8E0F8
:1049D0000898C068069006A800788006002809D5C7
:1049E000FFE7A84A10682021084310600698884312
:1049F0000690FFE70498042808D0FFE704980C28E5
:104A000041D1FFE7039800283DD1FFE79D480068AA
:104A1000042108408008002808D0FFE706980028F5
:104A200004D1FFE709A90120087042E3964908680C
:104A30001F2212029043089A126912021043086062
:104A40009049086809229043069A10430860FFE7DE
:104A5000FFF770FE8A490968C9B20A098B49895C67
:104A6000C8408B4908608B480068FFF79FFA0146F1
:104A700005A801700078002804D0FFE7059809A96F
:104A8000087016E34CE0069800282AD0FFE77D491D
:104A9000086809229043069A10430860FEF700FD5B
:104AA0000790FFE777480068042108408008002845
:104AB0000CD1FFE7FEF7F4FC0799401A032804D352
:104AC000FFE709A903200870F3E2EBE76E490868E5
:104AD0001F2212029043089A1269120210430860C2
:104AE0001DE068490868012290430860FEF7D8FC81
:104AF0000790FFE763480068042108408008002809
:104B00000CD0FFE7FEF7CCFC0799401A032804D32A
:104B1000FFE709A903200870CBE2EBE7FFE7FFE717
:104B2000FFE708980078C006002800D4A1E00498A8
:104B3000002845D1FFE75348006801214902084099
:104B4000400A002809D0FFE70898C069002804D16E
:104B5000FFE709A901200870ABE24B49086807226A
:104B600052039043089A526A104308600868FF2273
:104B700012069043089A126A120680180860089874
:104B8000406A400B411C01208840C0033C49096831
:104B9000C9B20A093D49895CC8403D4908603D48A1
:104BA0000068FFF703FA014605A8017000780028A5
:104BB00004D0FFE7059809A908707AE2FFE757E0FB
:104BC0000898C069002832D0FFE72E490868012202
:104BD000120210430860FEF763FC0790FFE72948C4
:104BE0000068012149020840400A00280CD1FFE773
:104BF000FEF756FC0799401A032804D3FFE709A9DA
:104C00000320087055E2EAE71F49086807225203AB
:104C10009043089A526A104308600868FF221206FF
:104C20009043089A126A1206801808601FE015491E
:104C300008680122120290430860FEF731FC0790D9
:104C4000FFE710480068012149020840400A002897
:104C50000CD0FFE7FEF724FC0799401A032804D381
:104C6000FFE709A90320087023E2EAE7FFE7FFE76F
:104C7000FFE708980078000700284FD50CE0C046F1
:104C80000C1002400010024004100240F0AF000877
:104C9000040000200C0000200898406900281ED065
:104CA000FFE7FD490868012210430860FEF7F8FBA2
:104CB0000790FFE7F84800680221084040080028F4
:104CC0000CD1FFE7FEF7ECFB0799401A032804D349
:104CD000FFE709A903200870EBE1EBE71DE0F949C4
:104CE0000868012290430860FEF7DAFB0790FFE7AF
:104CF000F448006802210840400800280CD0FFE773
:104D0000FEF7CEFB0799401A032804D3FFE709A951
:104D100003200870CDE1EBE7FFE7FFE70898007894
:104D20004007002800D4BBE001A900200870E64835
:104D30000068C000002809D4FFE7E34A1168012099
:104D400003071943116001A90870FFE7DF480068F5
:104D5000C00500281DD4FFE7DC49086801221202C3
:104D600010430860FEF79CFB0790FFE7D7480068F8
:104D7000C00500280CD4FFE7FEF792FB0799401A04
:104D8000652804D3FFE709A90320087091E1EDE746
:104D9000FFE7FFE70898806801210902884207D1F0
:104DA000FFE7C849086801221202104308602EE09C
:104DB0000898806800280BD1FFE7C24908680122E3
:104DC00013029843086008689202904308601DE04F
:104DD000089880680521090288420BD1FFE7B9498C
:104DE0000868012293021843086008681202104301
:104DF00008600AE0B349086801221302984308607A
:104E00000868920290430860FFE7FFE7FFE7FFE7CB
:104E10000898806800281BD0FFE7FEF741FB079049
:104E2000FFE7A8480068012149020840400A00281D
:104E30000DD1FFE7FEF734FB0799401AA4498842D9
:104E400004D3FFE709A90320087032E1E9E71AE07B
:104E5000FEF726FB0790FFE79A4800680121490208
:104E60000840400A00280DD0FFE7FEF719FB07991C
:104E7000401A9749884204D3FFE709A90320087024
:104E800017E1E9E7FFE701A80078012807D1FFE76C
:104E9000FB4908680122120790430860FFE7FFE71B
:104EA000089800788006002854D5FFE708988069A4
:104EB000002829D0FFE7FFE7864908680122104350
:104EC00008608649086810430860834908685203EF
:104ED00010430860FFE7FEF7E3FA0790FFE77D481D
:104EE000006802210840400800280CD1FFE7FEF7C7
:104EF000D7FA0799401A032804D3FFE709A903202A
:104F00000870D6E0EBE724E0FFE772490868012269
:104F10009043086070490868520390430860FFE7B7
:104F2000FEF7BEFA0790FFE76A48006802210840D2
:104F3000400800280CD0FFE7FEF7B2FA0799401AA4
:104F4000032804D3FFE709A903200870B1E0EBE7C9
:104F5000FFE7FFE70898806A002800D1A5E00498E1
:104F60000C2872D0FFE70898806A02284CD1FFE72E
:104F7000534908680122120690430860FEF790FA30
:104F80000790FFE74E480068012149060840400E9F
:104F900000280CD0FFE7FEF783FA0799401A032890
:104FA00004D3FFE709A90320087082E0EAE7434938
:104FB0000868FD2212049043089BDA6A1C6B2243A6
:104FC0005B6B1A43104308603D49086801221206D2
:104FD00010430860FEF764FA0790FFE7384800685E
:104FE000012149060840400E00280CD1FFE7FEF7DA
:104FF00057FA0799401A032804D3FFE709A90320A9
:10500000087056E0EAE71FE02D4908680122120601
:1050100090430860FEF744FA0790FFE728480068CD
:10502000012149060840400E00280CD0FFE7FEF79A
:1050300037FA0799401A032804D3FFE709A9032088
:10504000087036E0EAE7FFE72EE00898806A01285A
:1050500004D1FFE709A9012008702AE01748006879
:10506000039003980121090408400899C96A8842FD
:1050700014D1FFE703980F21890408400899096BB0
:1050800088420BD1FFE7039803218905084008995E
:10509000496B884206D001E05010024009A9012066
:1050A000087006E0FFE7FFE7FFE709A900200870A6
:1050B000FFE709A800780AB010BDC0460C100240F6
:1050C00000100240501002403810024000700040B2
:1050D00089130000081002402000014034100240F3
:1050E000704780B582B00190019802F053FE02B083
:1050F00080BD80B5FFF7F4FF80BD000085B0039050
:105100000291FFE703983821405C012804D1FFE7B2
:1051100004A90220087053E0039938220120885422
:10512000FFE7FFE7039939220220885403980068BB
:105130004068019003980068806800900198702191
:1051400088430190029801680198084301900198F2
:10515000039909684860039800680121890788421B
:1051600012D0FFE7039800686E4988420CD0FFE731
:10517000039800686C49884206D0FFE703980068EE
:105180006A4988420ED1FFE7009880218843009049
:1051900002984168009808430090009803990968B4
:1051A0008860FFE70399392201208854FFE70399BB
:1051B000382200208854FFE704A900200870FFE788
:1051C00004A8007805B0704780B582B000900098C0
:1051D000002804D1FFE701A90120087030E0009801
:1051E0003921405C002808D1FFE7009938220020CF
:1051F0008854009800F028F8FFE70099392202202F
:105200008854009901C902F04BFE00993E2201200A
:105210008854FFE700993A220120885400993B22E4
:10522000885400993C22885400993D228854FFE715
:10523000009939220120885401A900200870FFE755
:1052400001A8007802B080BD80B582B001900198BD
:1052500000680121890788420FD1FFE708490868E3
:105260000122104308600F20009000221146FEF733
:10527000FBFE0098FEF7EDFEFFE702B080BDC046E2
:105280003810024083B0019001983921405C012818
:1052900004D0FFE702A9012008703EE001993922FD
:1052A0000220885401980268D06801210843D06028
:1052B000019800688907884212D0FFE701980068CA
:1052C000184988420CD0FFE70198006816498842C7
:1052D00006D0FFE7019800681449884212D1FFE721
:1052E000019800688068072108400090009806280F
:1052F00007D0FFE7019801680868012210430860A1
:10530000FFE706E001980168086801221043086081
:10531000FFE702A900200870FFE702A8007803B0A9
:105320007047C046000400400008014000140140DE
:1053300080B586B00490039102A900200870FFE7B1
:1053400004983821405C012804D1FFE705A9022018
:105350000870AEE00499382201208854FFE7FFE787
:1053600004993922022088540498006880680190CA
:1053700001987721884301900198FF210902884311
:10538000019001980499096888600398006800906A
:10539000002875D0FFE70098102871D0FFE700982B
:1053A00020286DD0FFE70098302869D0FFE70098EB
:1053B000402858D0FFE7009850283AD0FFE70098DF
:1053C000602843D0FFE7009870280DD0FFE70098D1
:1053D00001210903884206D0FFE700980121490313
:1053E000884216D053E056E004980068039B996801
:1053F0005A68DB6802F0B6FD049800688068019086
:105400000198772108430190019804990968886000
:1054100041E004980068039B99685A68DB6802F0D1
:10542000A1FD0498016888680122920310438860F6
:1054300031E004980068039A5168D26802F0C2FD16
:1054400004980068502102F0A8FD24E00498006848
:10545000039A5168D26802F0DDFD0498006860216B
:1054600002F09BFD17E004980068039A5168D26827
:1054700002F0A8FD04980068402102F08EFD0AE0C9
:10548000049800680399096802F087FD03E002A907
:1054900001200870FFE70499392201208854FFE7B2
:1054A0000499382200208854FFE7029805A9087063
:1054B000FFE705A8007806B080BD81B0009001B07C
:1054C000704780B582B001900198006800690221A0
:1054D00008404008002828D0FFE701980068C0680D
:1054E00002210840400800281ED0FFE7019801680B
:1054F0000220C043086101990120087601980068E4
:1055000080698007002804D0FFE70198FFF7D5FFE6
:1055100006E0019800F0D4F8019800F0D5F8FFE714
:10552000019900200876FFE7FFE70198006800690D
:10553000042108408008002829D0FFE7019800686E
:10554000C06804210840800800281FD0FFE70198A8
:1055500001680420C043086101990220087601987F
:10556000006880698005800F002804D0FFE701985B
:10557000FFF7A3FF06E0019800F0A2F8019800F001
:10558000A3F8FFE7019900200876FFE7FFE70198FD
:105590000068006908210840C008002828D0FFE7FB
:1055A00001980068C06808210840C00800281ED083
:1055B000FFE7019801680820C043086101990420B1
:1055C000087601980068C0698007002804D0FFE7CA
:1055D0000198FFF772FF06E0019800F071F801985A
:1055E00000F072F8FFE7019900200876FFE7FFE777
:1055F000019800680069102108400009002829D09E
:10560000FFE701980068C0681021084000090028E1
:105610001FD0FFE7019801681020C043086101997D
:105620000820087601980068C0698005800F00286E
:1056300004D0FFE70198FFF740FF06E0019800F073
:105640003FF8019800F040F8FFE701990020087644
:10565000FFE7FFE7019800680069C007002811D044
:10566000FFE701980068C068C007002809D0FFE77D
:10567000019801680120C0430861019800F028F8F2
:10568000FFE7FFE7019800680069402108408009B2
:10569000002813D0FFE701980068C0684021084047
:1056A0008009002809D0FFE7019801684020C04325
:1056B0000861019800F092FBFFE7FFE702B080BDB0
:1056C00081B0009001B0704781B0009001B0704788
:1056D000F0B5DBB05A905A980068012189078842DA
:1056E00000D056E3FA480078532812D1FFE7F84972
:1056F00000200870F74A01201070F748382200F0A7
:10570000A5FEF6483E9003F0DDFC3E9803F01EFE39
:10571000FFE7F0480078002800D034E3F048008824
:10572000002800D12FE3EF480078EF49097888423C
:1057300000DA28E30720FEF78CFCEA4901203B90C1
:105740000870EA480178EA483A900378E94C3D94B9
:1057500020780090E8483C90002202F0D7F83A9B6D
:105760003B9A3C98E54909781B782478009402F02C
:10577000CDF83D980178491C01700078E04909781E
:10578000884200DAFCE000205990FFE75998DC4994
:105790000978884255DAFFE75998C100D948349012
:1057A0004058FBF77FFC02460B46D7493691086804
:1057B0004968FBF7D3F8369A0346349835930B467D
:1057C0003599536011605999C90040184068FBF73A
:1057D00069FC02460B4636998868C968FBF7BEF833
:1057E0000A463699CA6088605998C100C748379000
:1057F0004058FBF757FC02460B46C54939910868EB
:105800004968FBF7ABF8399A0346379838930B464B
:105810003899536011605999C90040184068FBF7E6
:1058200041FC02460B4639998868C968FBF796F82F
:105830000A463999CA608860FFE75998401C599018
:10584000A4E7B1490868496800231A4605F054FAEC
:10585000002811D1FFE7AA480078FBF7F4FA0246C6
:105860000B46A949339108684968FBF7A7F80A462F
:1058700033994A600860FFE7A3498868C968002334
:105880001A4605F039FA002811D1FFE79C48007844
:10589000FBF7D9FA02460B469B4932918868C968E2
:1058A000FBF78CF80A463299CA608860FFE798498E
:1058B0000868496800231A4605F01EFA002811D12D
:1058C000FFE78F480078FBF7BEFA02460B46904987
:1058D000319108684968FBF771F80A4631994A60C6
:1058E0000860FFE78A498868C96800231A4605F0FE
:1058F00003FA002811D1FFE781480078FBF7A3FAEB
:1059000002460B46824930918868C968FBF756F811
:105910000A463099CA608860FFE77B4B2D937C4F25
:105920002E97186859689A68DB683C687D68BE687D
:10593000FF680797069605950494039302920191D8
:10594000009074482C90744A3C21FAF753FD2C992E
:1059500002467248027002785F4800232F93DB43AF
:1059600000F03CFE2D9A2E992F98624B18705060D3
:105970001060D060906048600860C8608860FFE791
:105980005B480178491C01700078654909788842B4
:1059900000DAF7E100205890FFE75898604909784D
:1059A000884255DAFFE75898C1005E482690405873
:1059B000FBF778FB02460B46FB49289108684968CB
:1059C000FAF7CCFF289A0346269827930B46279987
:1059D000536011605899C90040184068FBF762FB9A
:1059E00002460B4628998868C968FAF7B7FF0A4645
:1059F0002899CA6088605898C100F7482990405893
:105A0000FBF750FB02460B46E8492B9108684968B2
:105A1000FAF7A4FF2B9A034629982A930B462A9952
:105A2000536011605899C90040184068FBF73AFB71
:105A300002460B462B998868C968FAF78FFF0A4619
:105A40002B99CA608860FFE75898401C5890A4E7DB
:105A5000D5490868496800231A4605F04DF9002821
:105A600011D1FFE7CF480078FBF7EDF902460B466E
:105A7000CD49259108684968FAF7A0FF0A4625999B
:105A80004A600860FFE7C8498868C96800231A4669
:105A900005F032F9002811D1FFE7C2480078FBF782
:105AA000D2F902460B46C04924918868C968FAF7C2
:105AB00085FF0A462499CA608860FFE7BB490868E9
:105AC000496800231A4605F017F900283DD12BE05C
:105AD0002603002000000020680400200C050020A0
